{
  "_format": "hh-sol-artifact-1",
  "contractName": "GreenCredit",
  "sourceName": "contracts/GreenCredit.sol",
  "abi": [
    {
      "inputs": [
        {
          "internalType": "address",
          "name": "initialOwner",
          "type": "address"
        }
      ],
      "stateMutability": "nonpayable",
      "type": "constructor"
    },
    {
      "inputs": [
        {
          "internalType": "address",
          "name": "sender",
          "type": "address"
        },
        {
          "internalType": "uint256",
          "name": "tokenId",
          "type": "uint256"
        },
        {
          "internalType": "address",
          "name": "owner",
          "type": "address"
        }
      ],
      "name": "ERC721IncorrectOwner",
      "type": "error"
    },
    {
      "inputs": [
        {
          "internalType": "address",
          "name": "operator",
          "type": "address"
        },
        {
          "internalType": "uint256",
          "name": "tokenId",
          "type": "uint256"
        }
      ],
      "name": "ERC721InsufficientApproval",
      "type": "error"
    },
    {
      "inputs": [
        {
          "internalType": "address",
          "name": "approver",
          "type": "address"
        }
      ],
      "name": "ERC721InvalidApprover",
      "type": "error"
    },
    {
      "inputs": [
        {
          "internalType": "address",
          "name": "operator",
          "type": "address"
        }
      ],
      "name": "ERC721InvalidOperator",
      "type": "error"
    },
    {
      "inputs": [
        {
          "internalType": "address",
          "name": "owner",
          "type": "address"
        }
      ],
      "name": "ERC721InvalidOwner",
      "type": "error"
    },
    {
      "inputs": [
        {
          "internalType": "address",
          "name": "receiver",
          "type": "address"
        }
      ],
      "name": "ERC721InvalidReceiver",
      "type": "error"
    },
    {
      "inputs": [
        {
          "internalType": "address",
          "name": "sender",
          "type": "address"
        }
      ],
      "name": "ERC721InvalidSender",
      "type": "error"
    },
    {
      "inputs": [
        {
          "internalType": "uint256",
          "name": "tokenId",
          "type": "uint256"
        }
      ],
      "name": "ERC721NonexistentToken",
      "type": "error"
    },
    {
      "inputs": [
        {
          "internalType": "address",
          "name": "owner",
          "type": "address"
        }
      ],
      "name": "OwnableInvalidOwner",
      "type": "error"
    },
    {
      "inputs": [
        {
          "internalType": "address",
          "name": "account",
          "type": "address"
        }
      ],
      "name": "OwnableUnauthorizedAccount",
      "type": "error"
    },
    {
      "anonymous": false,
      "inputs": [
        {
          "indexed": true,
          "internalType": "address",
          "name": "owner",
          "type": "address"
        },
        {
          "indexed": true,
          "internalType": "address",
          "name": "approved",
          "type": "address"
        },
        {
          "indexed": true,
          "internalType": "uint256",
          "name": "tokenId",
          "type": "uint256"
        }
      ],
      "name": "Approval",
      "type": "event"
    },
    {
      "anonymous": false,
      "inputs": [
        {
          "indexed": true,
          "internalType": "address",
          "name": "owner",
          "type": "address"
        },
        {
          "indexed": true,
          "internalType": "address",
          "name": "operator",
          "type": "address"
        },
        {
          "indexed": false,
          "internalType": "bool",
          "name": "approved",
          "type": "bool"
        }
      ],
      "name": "ApprovalForAll",
      "type": "event"
    },
    {
      "anonymous": false,
      "inputs": [
        {
          "indexed": false,
          "internalType": "uint256",
          "name": "_fromTokenId",
          "type": "uint256"
        },
        {
          "indexed": false,
          "internalType": "uint256",
          "name": "_toTokenId",
          "type": "uint256"
        }
      ],
      "name": "BatchMetadataUpdate",
      "type": "event"
    },
    {
      "anonymous": false,
      "inputs": [
        {
          "indexed": true,
          "internalType": "uint256",
          "name": "tokenId",
          "type": "uint256"
        },
        {
          "indexed": true,
          "internalType": "address",
          "name": "producer",
          "type": "address"
        },
        {
          "indexed": false,
          "internalType": "string",
          "name": "tokenURI",
          "type": "string"
        }
      ],
      "name": "CreditMinted",
      "type": "event"
    },
    {
      "anonymous": false,
      "inputs": [
        {
          "indexed": true,
          "internalType": "uint256",
          "name": "tokenId",
          "type": "uint256"
        }
      ],
      "name": "CreditRetired",
      "type": "event"
    },
    {
      "anonymous": false,
      "inputs": [
        {
          "indexed": false,
          "internalType": "uint256",
          "name": "_tokenId",
          "type": "uint256"
        }
      ],
      "name": "MetadataUpdate",
      "type": "event"
    },
    {
      "anonymous": false,
      "inputs": [
        {
          "indexed": true,
          "internalType": "address",
          "name": "previousOwner",
          "type": "address"
        },
        {
          "indexed": true,
          "internalType": "address",
          "name": "newOwner",
          "type": "address"
        }
      ],
      "name": "OwnershipTransferred",
      "type": "event"
    },
    {
      "anonymous": false,
      "inputs": [
        {
          "indexed": true,
          "internalType": "address",
          "name": "from",
          "type": "address"
        },
        {
          "indexed": true,
          "internalType": "address",
          "name": "to",
          "type": "address"
        },
        {
          "indexed": true,
          "internalType": "uint256",
          "name": "tokenId",
          "type": "uint256"
        }
      ],
      "name": "Transfer",
      "type": "event"
    },
    {
      "inputs": [
        {
          "internalType": "address",
          "name": "to",
          "type": "address"
        },
        {
          "internalType": "uint256",
          "name": "tokenId",
          "type": "uint256"
        }
      ],
      "name": "approve",
      "outputs": [],
      "stateMutability": "nonpayable",
      "type": "function"
    },
    {
      "inputs": [
        {
          "internalType": "address",
          "name": "owner",
          "type": "address"
        }
      ],
      "name": "balanceOf",
      "outputs": [
        {
          "internalType": "uint256",
          "name": "",
          "type": "uint256"
        }
      ],
      "stateMutability": "view",
      "type": "function"
    },
    {
      "inputs": [
        {
          "internalType": "uint256",
          "name": "tokenId",
          "type": "uint256"
        }
      ],
      "name": "getApproved",
      "outputs": [
        {
          "internalType": "address",
          "name": "",
          "type": "address"
        }
      ],
      "stateMutability": "view",
      "type": "function"
    },
    {
      "inputs": [],
      "name": "getCertifier",
      "outputs": [
        {
          "internalType": "address",
          "name": "",
          "type": "address"
        }
      ],
      "stateMutability": "view",
      "type": "function"
    },
    {
      "inputs": [
        {
          "internalType": "address",
          "name": "owner",
          "type": "address"
        },
        {
          "internalType": "address",
          "name": "operator",
          "type": "address"
        }
      ],
      "name": "isApprovedForAll",
      "outputs": [
        {
          "internalType": "bool",
          "name": "",
          "type": "bool"
        }
      ],
      "stateMutability": "view",
      "type": "function"
    },
    {
      "inputs": [
        {
          "internalType": "uint256",
          "name": "tokenId",
          "type": "uint256"
        }
      ],
      "name": "isRetired",
      "outputs": [
        {
          "internalType": "bool",
          "name": "",
          "type": "bool"
        }
      ],
      "stateMutability": "view",
      "type": "function"
    },
    {
      "inputs": [],
      "name": "name",
      "outputs": [
        {
          "internalType": "string",
          "name": "",
          "type": "string"
        }
      ],
      "stateMutability": "view",
      "type": "function"
    },
    {
      "inputs": [],
      "name": "owner",
      "outputs": [
        {
          "internalType": "address",
          "name": "",
          "type": "address"
        }
      ],
      "stateMutability": "view",
      "type": "function"
    },
    {
      "inputs": [
        {
          "internalType": "uint256",
          "name": "tokenId",
          "type": "uint256"
        }
      ],
      "name": "ownerOf",
      "outputs": [
        {
          "internalType": "address",
          "name": "",
          "type": "address"
        }
      ],
      "stateMutability": "view",
      "type": "function"
    },
    {
      "inputs": [],
      "name": "renounceOwnership",
      "outputs": [],
      "stateMutability": "nonpayable",
      "type": "function"
    },
    {
      "inputs": [
        {
          "internalType": "uint256",
          "name": "tokenId",
          "type": "uint256"
        }
      ],
      "name": "retire",
      "outputs": [],
      "stateMutability": "nonpayable",
      "type": "function"
    },
    {
      "inputs": [
        {
          "internalType": "address",
          "name": "producer",
          "type": "address"
        },
        {
          "internalType": "string",
          "name": "metadataURI",
          "type": "string"
        }
      ],
      "name": "safeMint",
      "outputs": [],
      "stateMutability": "nonpayable",
      "type": "function"
    },
    {
      "inputs": [
        {
          "internalType": "address",
          "name": "from",
          "type": "address"
        },
        {
          "internalType": "address",
          "name": "to",
          "type": "address"
        },
        {
          "internalType": "uint256",
          "name": "tokenId",
          "type": "uint256"
        }
      ],
      "name": "safeTransferFrom",
      "outputs": [],
      "stateMutability": "nonpayable",
      "type": "function"
    },
    {
      "inputs": [
        {
          "internalType": "address",
          "name": "from",
          "type": "address"
        },
        {
          "internalType": "address",
          "name": "to",
          "type": "address"
        },
        {
          "internalType": "uint256",
          "name": "tokenId",
          "type": "uint256"
        },
        {
          "internalType": "bytes",
          "name": "data",
          "type": "bytes"
        }
      ],
      "name": "safeTransferFrom",
      "outputs": [],
      "stateMutability": "nonpayable",
      "type": "function"
    },
    {
      "inputs": [
        {
          "internalType": "address",
          "name": "operator",
          "type": "address"
        },
        {
          "internalType": "bool",
          "name": "approved",
          "type": "bool"
        }
      ],
      "name": "setApprovalForAll",
      "outputs": [],
      "stateMutability": "nonpayable",
      "type": "function"
    },
    {
      "inputs": [
        {
          "internalType": "address",
          "name": "certifierAddress",
          "type": "address"
        }
      ],
      "name": "setCertifier",
      "outputs": [],
      "stateMutability": "nonpayable",
      "type": "function"
    },
    {
      "inputs": [
        {
          "internalType": "bytes4",
          "name": "interfaceId",
          "type": "bytes4"
        }
      ],
      "name": "supportsInterface",
      "outputs": [
        {
          "internalType": "bool",
          "name": "",
          "type": "bool"
        }
      ],
      "stateMutability": "view",
      "type": "function"
    },
    {
      "inputs": [],
      "name": "symbol",
      "outputs": [
        {
          "internalType": "string",
          "name": "",
          "type": "string"
        }
      ],
      "stateMutability": "view",
      "type": "function"
    },
    {
      "inputs": [
        {
          "internalType": "uint256",
          "name": "tokenId",
          "type": "uint256"
        }
      ],
      "name": "tokenURI",
      "outputs": [
        {
          "internalType": "string",
          "name": "",
          "type": "string"
        }
      ],
      "stateMutability": "view",
      "type": "function"
    },
    {
      "inputs": [
        {
          "internalType": "address",
          "name": "from",
          "type": "address"
        },
        {
          "internalType": "address",
          "name": "to",
          "type": "address"
        },
        {
          "internalType": "uint256",
          "name": "tokenId",
          "type": "uint256"
        }
      ],
      "name": "transferFrom",
      "outputs": [],
      "stateMutability": "nonpayable",
      "type": "function"
    },
    {
      "inputs": [
        {
          "internalType": "address",
          "name": "newOwner",
          "type": "address"
        }
      ],
      "name": "transferOwnership",
      "outputs": [],
      "stateMutability": "nonpayable",
      "type": "function"
    }
  ],
  "bytecode": "0x60806040523480156200001157600080fd5b506040516200343c3803806200343c833981810160405281019062000037919062000288565b806040518060400160405280601581526020017f477265656e20487964726f67656e2043726564697400000000000000000000008152506040518060400160405280600381526020017f47484300000000000000000000000000000000000000000000000000000000008152508160009081620000b5919062000534565b508060019081620000c7919062000534565b505050600073ffffffffffffffffffffffffffffffffffffffff168173ffffffffffffffffffffffffffffffffffffffff16036200013f5760006040517f1e4fbdf70000000000000000000000000000000000000000000000000000000081526004016200013691906200062c565b60405180910390fd5b62000150816200015860201b60201c565b505062000649565b6000600760009054906101000a900473ffffffffffffffffffffffffffffffffffffffff16905081600760006101000a81548173ffffffffffffffffffffffffffffffffffffffff021916908373ffffffffffffffffffffffffffffffffffffffff1602179055508173ffffffffffffffffffffffffffffffffffffffff168173ffffffffffffffffffffffffffffffffffffffff167f8be0079c531659141344cd1fd0a4f28419497f9722a3daafe3b4186f6b6457e060405160405180910390a35050565b600080fd5b600073ffffffffffffffffffffffffffffffffffffffff82169050919050565b6000620002508262000223565b9050919050565b620002628162000243565b81146200026e57600080fd5b50565b600081519050620002828162000257565b92915050565b600060208284031215620002a157620002a06200021e565b5b6000620002b18482850162000271565b91505092915050565b600081519050919050565b7f4e487b7100000000000000000000000000000000000000000000000000000000600052604160045260246000fd5b7f4e487b7100000000000000000000000000000000000000000000000000000000600052602260045260246000fd5b600060028204905060018216806200033c57607f821691505b602082108103620003525762000351620002f4565b5b50919050565b60008190508160005260206000209050919050565b60006020601f8301049050919050565b600082821b905092915050565b600060088302620003bc7fffffffffffffffffffffffffffffffffffffffffffffffffffffffffffffffff826200037d565b620003c886836200037d565b95508019841693508086168417925050509392505050565b6000819050919050565b6000819050919050565b6000620004156200040f6200040984620003e0565b620003ea565b620003e0565b9050919050565b6000819050919050565b6200043183620003f4565b6200044962000440826200041c565b8484546200038a565b825550505050565b600090565b6200046062000451565b6200046d81848462000426565b505050565b5b8181101562000495576200048960008262000456565b60018101905062000473565b5050565b601f821115620004e457620004ae8162000358565b620004b9846200036d565b81016020851015620004c9578190505b620004e1620004d8856200036d565b83018262000472565b50505b505050565b600082821c905092915050565b60006200050960001984600802620004e9565b1980831691505092915050565b6000620005248383620004f6565b9150826002028217905092915050565b6200053f82620002ba565b67ffffffffffffffff8111156200055b576200055a620002c5565b5b62000567825462000323565b6200057482828562000499565b600060209050601f831160018114620005ac576000841562000597578287015190505b620005a3858262000516565b86555062000613565b601f198416620005bc8662000358565b60005b82811015620005e657848901518255600182019150602085019450602081019050620005bf565b8683101562000606578489015162000602601f891682620004f6565b8355505b6001600288020188555050505b505050505050565b620006268162000243565b82525050565b60006020820190506200064360008301846200061b565b92915050565b612de380620006596000396000f3fe608060405234801561001057600080fd5b50600436106101375760003560e01c806370a08231116100b8578063b88d4fde1161007c578063b88d4fde14610326578063c87b56dd14610342578063cf6ebee714610372578063d204c45e146103a2578063e985e9c5146103be578063f2fde38b146103ee57610137565b806370a0823114610294578063715018a6146102c45780638da5cb5b146102ce57806395d89b41146102ec578063a22cb4651461030a57610137565b806325f2eefd116100ff57806325f2eefd146101f2578063373a7fb41461020e5780633790cf571461022c57806342842e0e146102485780636352211e1461026457610137565b806301ffc9a71461013c57806306fdde031461016c578063081812fc1461018a578063095ea7b3146101ba57806323b872dd146101d6575b600080fd5b61015660048036038101906101519190611fad565b61040a565b6040516101639190611ff5565b60405180910390f35b61017461041c565b60405161018191906120a0565b60405180910390f35b6101a4600480360381019061019f91906120f8565b6104ae565b6040516101b19190612166565b60405180910390f35b6101d460048036038101906101cf91906121ad565b6104ca565b005b6101f060048036038101906101eb91906121ed565b6104e0565b005b61020c60048036038101906102079190612240565b6105e2565b005b61021661069d565b6040516102239190612166565b60405180910390f35b610246600480360381019061024191906120f8565b6106c7565b005b610262600480360381019061025d91906121ed565b610799565b005b61027e600480360381019061027991906120f8565b6107b9565b60405161028b9190612166565b60405180910390f35b6102ae60048036038101906102a99190612240565b6107cb565b6040516102bb919061227c565b60405180910390f35b6102cc610885565b005b6102d6610899565b6040516102e39190612166565b60405180910390f35b6102f46108c3565b60405161030191906120a0565b60405180910390f35b610324600480360381019061031f91906122c3565b610955565b005b610340600480360381019061033b9190612438565b61096b565b005b61035c600480360381019061035791906120f8565b610990565b60405161036991906120a0565b60405180910390f35b61038c600480360381019061038791906120f8565b6109a2565b6040516103999190611ff5565b60405180910390f35b6103bc60048036038101906103b7919061255c565b6109cc565b005b6103d860048036038101906103d391906125b8565b610b4e565b6040516103e59190611ff5565b60405180910390f35b61040860048036038101906104039190612240565b610be2565b005b600061041582610c68565b9050919050565b60606000805461042b90612627565b80601f016020809104026020016040519081016040528092919081815260200182805461045790612627565b80156104a45780601f10610479576101008083540402835291602001916104a4565b820191906000526020600020905b81548152906001019060200180831161048757829003601f168201915b5050505050905090565b60006104b982610cc9565b506104c382610d51565b9050919050565b6104dc82826104d7610d8e565b610d96565b5050565b600073ffffffffffffffffffffffffffffffffffffffff168273ffffffffffffffffffffffffffffffffffffffff16036105525760006040517f64a0ae920000000000000000000000000000000000000000000000000000000081526004016105499190612166565b60405180910390fd5b60006105668383610561610d8e565b610da8565b90508373ffffffffffffffffffffffffffffffffffffffff168173ffffffffffffffffffffffffffffffffffffffff16146105dc578382826040517f64283d7b0000000000000000000000000000000000000000000000000000000081526004016105d393929190612658565b60405180910390fd5b50505050565b6105ea610e9c565b600073ffffffffffffffffffffffffffffffffffffffff168173ffffffffffffffffffffffffffffffffffffffff1603610659576040517f08c379a000000000000000000000000000000000000000000000000000000000815260040161065090612701565b60405180910390fd5b80600960006101000a81548173ffffffffffffffffffffffffffffffffffffffff021916908373ffffffffffffffffffffffffffffffffffffffff16021790555050565b6000600960009054906101000a900473ffffffffffffffffffffffffffffffffffffffff16905090565b3373ffffffffffffffffffffffffffffffffffffffff166106e7826107b9565b73ffffffffffffffffffffffffffffffffffffffff161461073d576040517f08c379a000000000000000000000000000000000000000000000000000000000815260040161073490612793565b60405180910390fd5b6001600a600083815260200190815260200160002060006101000a81548160ff021916908315150217905550807f57794ed7918719377d2dcd45c252dbb131661c0f66a72da44a55b5571edd573c60405160405180910390a250565b6107b48383836040518060200160405280600081525061096b565b505050565b60006107c482610cc9565b9050919050565b60008073ffffffffffffffffffffffffffffffffffffffff168273ffffffffffffffffffffffffffffffffffffffff160361083e5760006040517f89c62b640000000000000000000000000000000000000000000000000000000081526004016108359190612166565b60405180910390fd5b600360008373ffffffffffffffffffffffffffffffffffffffff1673ffffffffffffffffffffffffffffffffffffffff168152602001908152602001600020549050919050565b61088d610e9c565b6108976000610f23565b565b6000600760009054906101000a900473ffffffffffffffffffffffffffffffffffffffff16905090565b6060600180546108d290612627565b80601f01602080910402602001604051908101604052809291908181526020018280546108fe90612627565b801561094b5780601f106109205761010080835404028352916020019161094b565b820191906000526020600020905b81548152906001019060200180831161092e57829003601f168201915b5050505050905090565b610967610960610d8e565b8383610fe9565b5050565b6109768484846104e0565b61098a610981610d8e565b85858585611158565b50505050565b606061099b82611309565b9050919050565b6000600a600083815260200190815260200160002060009054906101000a900460ff169050919050565b600960009054906101000a900473ffffffffffffffffffffffffffffffffffffffff1673ffffffffffffffffffffffffffffffffffffffff163373ffffffffffffffffffffffffffffffffffffffff1614610a5c576040517f08c379a0000000000000000000000000000000000000000000000000000000008152600401610a5390612825565b60405180910390fd5b600073ffffffffffffffffffffffffffffffffffffffff168273ffffffffffffffffffffffffffffffffffffffff1603610acb576040517f08c379a0000000000000000000000000000000000000000000000000000000008152600401610ac290612891565b60405180910390fd5b600060086000815480929190610ae0906128e0565b919050559050610af0838261141c565b610afa818361143a565b8273ffffffffffffffffffffffffffffffffffffffff16817f05c28f040473e8f10849afb77fc3b0af4d3c16897935d7106a829f4e72b024a684604051610b4191906120a0565b60405180910390a3505050565b6000600560008473ffffffffffffffffffffffffffffffffffffffff1673ffffffffffffffffffffffffffffffffffffffff16815260200190815260200160002060008373ffffffffffffffffffffffffffffffffffffffff1673ffffffffffffffffffffffffffffffffffffffff16815260200190815260200160002060009054906101000a900460ff16905092915050565b610bea610e9c565b600073ffffffffffffffffffffffffffffffffffffffff168173ffffffffffffffffffffffffffffffffffffffff1603610c5c5760006040517f1e4fbdf7000000000000000000000000000000000000000000000000000000008152600401610c539190612166565b60405180910390fd5b610c6581610f23565b50565b6000634906490660e01b7bffffffffffffffffffffffffffffffffffffffffffffffffffffffff1916827bffffffffffffffffffffffffffffffffffffffffffffffffffffffff19161480610cc25750610cc182611496565b5b9050919050565b600080610cd583611578565b9050600073ffffffffffffffffffffffffffffffffffffffff168173ffffffffffffffffffffffffffffffffffffffff1603610d4857826040517f7e273289000000000000000000000000000000000000000000000000000000008152600401610d3f919061227c565b60405180910390fd5b80915050919050565b60006004600083815260200190815260200160002060009054906101000a900473ffffffffffffffffffffffffffffffffffffffff169050919050565b600033905090565b610da383838360016115b5565b505050565b600080610db484611578565b9050600073ffffffffffffffffffffffffffffffffffffffff168173ffffffffffffffffffffffffffffffffffffffff1614158015610e205750600073ffffffffffffffffffffffffffffffffffffffff168573ffffffffffffffffffffffffffffffffffffffff1614155b15610e8757600a600085815260200190815260200160002060009054906101000a900460ff1615610e86576040517f08c379a0000000000000000000000000000000000000000000000000000000008152600401610e7d90612974565b60405180910390fd5b5b610e9285858561177a565b9150509392505050565b610ea4610d8e565b73ffffffffffffffffffffffffffffffffffffffff16610ec2610899565b73ffffffffffffffffffffffffffffffffffffffff1614610f2157610ee5610d8e565b6040517f118cdaa7000000000000000000000000000000000000000000000000000000008152600401610f189190612166565b60405180910390fd5b565b6000600760009054906101000a900473ffffffffffffffffffffffffffffffffffffffff16905081600760006101000a81548173ffffffffffffffffffffffffffffffffffffffff021916908373ffffffffffffffffffffffffffffffffffffffff1602179055508173ffffffffffffffffffffffffffffffffffffffff168173ffffffffffffffffffffffffffffffffffffffff167f8be0079c531659141344cd1fd0a4f28419497f9722a3daafe3b4186f6b6457e060405160405180910390a35050565b600073ffffffffffffffffffffffffffffffffffffffff168273ffffffffffffffffffffffffffffffffffffffff160361105a57816040517f5b08ba180000000000000000000000000000000000000000000000000000000081526004016110519190612166565b60405180910390fd5b80600560008573ffffffffffffffffffffffffffffffffffffffff1673ffffffffffffffffffffffffffffffffffffffff16815260200190815260200160002060008473ffffffffffffffffffffffffffffffffffffffff1673ffffffffffffffffffffffffffffffffffffffff16815260200190815260200160002060006101000a81548160ff0219169083151502179055508173ffffffffffffffffffffffffffffffffffffffff168373ffffffffffffffffffffffffffffffffffffffff167f17307eab39ab6107e8899845ad3d59bd9653f200f220920489ca2b5937696c318360405161114b9190611ff5565b60405180910390a3505050565b60008373ffffffffffffffffffffffffffffffffffffffff163b1115611302578273ffffffffffffffffffffffffffffffffffffffff1663150b7a02868685856040518563ffffffff1660e01b81526004016111b794939291906129e9565b6020604051808303816000875af19250505080156111f357506040513d601f19601f820116820180604052508101906111f09190612a4a565b60015b611277573d8060008114611223576040519150601f19603f3d011682016040523d82523d6000602084013e611228565b606091505b50600081510361126f57836040517f64a0ae920000000000000000000000000000000000000000000000000000000081526004016112669190612166565b60405180910390fd5b805160208201fd5b63150b7a0260e01b7bffffffffffffffffffffffffffffffffffffffffffffffffffffffff1916817bffffffffffffffffffffffffffffffffffffffffffffffffffffffff19161461130057836040517f64a0ae920000000000000000000000000000000000000000000000000000000081526004016112f79190612166565b60405180910390fd5b505b5050505050565b606061131482610cc9565b50600060066000848152602001908152602001600020805461133590612627565b80601f016020809104026020016040519081016040528092919081815260200182805461136190612627565b80156113ae5780601f10611383576101008083540402835291602001916113ae565b820191906000526020600020905b81548152906001019060200180831161139157829003601f168201915b5050505050905060006113bf611994565b905060008151036113d4578192505050611417565b6000825111156114095780826040516020016113f1929190612ab3565b60405160208183030381529060405292505050611417565b611412846119ab565b925050505b919050565b611436828260405180602001604052806000815250611a14565b5050565b8060066000848152602001908152602001600020908161145a9190612c83565b507ff8e1a15aba9398e019f0b49df1a4fde98ee17ae345cb5f6b5e2c27f5033e8ce78260405161148a919061227c565b60405180910390a15050565b60007f80ac58cd000000000000000000000000000000000000000000000000000000007bffffffffffffffffffffffffffffffffffffffffffffffffffffffff1916827bffffffffffffffffffffffffffffffffffffffffffffffffffffffff1916148061156157507f5b5e139f000000000000000000000000000000000000000000000000000000007bffffffffffffffffffffffffffffffffffffffffffffffffffffffff1916827bffffffffffffffffffffffffffffffffffffffffffffffffffffffff1916145b80611571575061157082611a38565b5b9050919050565b60006002600083815260200190815260200160002060009054906101000a900473ffffffffffffffffffffffffffffffffffffffff169050919050565b80806115ee5750600073ffffffffffffffffffffffffffffffffffffffff168273ffffffffffffffffffffffffffffffffffffffff1614155b156117225760006115fe84610cc9565b9050600073ffffffffffffffffffffffffffffffffffffffff168373ffffffffffffffffffffffffffffffffffffffff161415801561166957508273ffffffffffffffffffffffffffffffffffffffff168173ffffffffffffffffffffffffffffffffffffffff1614155b801561167c575061167a8184610b4e565b155b156116be57826040517fa9fbf51f0000000000000000000000000000000000000000000000000000000081526004016116b59190612166565b60405180910390fd5b811561172057838573ffffffffffffffffffffffffffffffffffffffff168273ffffffffffffffffffffffffffffffffffffffff167f8c5be1e5ebec7d5bd14f71427d1e84f3dd0314c0f7b2291e5b200ac8c7c3b92560405160405180910390a45b505b836004600085815260200190815260200160002060006101000a81548173ffffffffffffffffffffffffffffffffffffffff021916908373ffffffffffffffffffffffffffffffffffffffff16021790555050505050565b60008061178684611578565b9050600073ffffffffffffffffffffffffffffffffffffffff168373ffffffffffffffffffffffffffffffffffffffff16146117c8576117c7818486611aa2565b5b600073ffffffffffffffffffffffffffffffffffffffff168173ffffffffffffffffffffffffffffffffffffffff16146118595761180a6000856000806115b5565b6001600360008373ffffffffffffffffffffffffffffffffffffffff1673ffffffffffffffffffffffffffffffffffffffff168152602001908152602001600020600082825403925050819055505b600073ffffffffffffffffffffffffffffffffffffffff168573ffffffffffffffffffffffffffffffffffffffff16146118dc576001600360008773ffffffffffffffffffffffffffffffffffffffff1673ffffffffffffffffffffffffffffffffffffffff168152602001908152602001600020600082825401925050819055505b846002600086815260200190815260200160002060006101000a81548173ffffffffffffffffffffffffffffffffffffffff021916908373ffffffffffffffffffffffffffffffffffffffff160217905550838573ffffffffffffffffffffffffffffffffffffffff168273ffffffffffffffffffffffffffffffffffffffff167fddf252ad1be2c89b69c2b068fc378daa952ba7f163c4a11628f55a4df523b3ef60405160405180910390a4809150509392505050565b606060405180602001604052806000815250905090565b60606119b682610cc9565b5060006119c1611994565b905060008151116119e15760405180602001604052806000815250611a0c565b806119eb84611b66565b6040516020016119fc929190612ab3565b6040516020818303038152906040525b915050919050565b611a1e8383611c34565b611a33611a29610d8e565b6000858585611158565b505050565b60007f01ffc9a7000000000000000000000000000000000000000000000000000000007bffffffffffffffffffffffffffffffffffffffffffffffffffffffff1916827bffffffffffffffffffffffffffffffffffffffffffffffffffffffff1916149050919050565b611aad838383611d2d565b611b6157600073ffffffffffffffffffffffffffffffffffffffff168373ffffffffffffffffffffffffffffffffffffffff1603611b2257806040517f7e273289000000000000000000000000000000000000000000000000000000008152600401611b19919061227c565b60405180910390fd5b81816040517f177e802f000000000000000000000000000000000000000000000000000000008152600401611b58929190612d55565b60405180910390fd5b505050565b606060006001611b7584611dee565b01905060008167ffffffffffffffff811115611b9457611b9361230d565b5b6040519080825280601f01601f191660200182016040528015611bc65781602001600182028036833780820191505090505b509050600082602083010190505b600115611c29578080600190039150507f3031323334353637383961626364656600000000000000000000000000000000600a86061a8153600a8581611c1d57611c1c612d7e565b5b04945060008503611bd4575b819350505050919050565b600073ffffffffffffffffffffffffffffffffffffffff168273ffffffffffffffffffffffffffffffffffffffff1603611ca65760006040517f64a0ae92000000000000000000000000000000000000000000000000000000008152600401611c9d9190612166565b60405180910390fd5b6000611cb483836000610da8565b9050600073ffffffffffffffffffffffffffffffffffffffff168173ffffffffffffffffffffffffffffffffffffffff1614611d285760006040517f73c6ac6e000000000000000000000000000000000000000000000000000000008152600401611d1f9190612166565b60405180910390fd5b505050565b60008073ffffffffffffffffffffffffffffffffffffffff168373ffffffffffffffffffffffffffffffffffffffff1614158015611de557508273ffffffffffffffffffffffffffffffffffffffff168473ffffffffffffffffffffffffffffffffffffffff161480611da65750611da58484610b4e565b5b80611de457508273ffffffffffffffffffffffffffffffffffffffff16611dcc83610d51565b73ffffffffffffffffffffffffffffffffffffffff16145b5b90509392505050565b600080600090507a184f03e93ff9f4daa797ed6e38ed64bf6a1f0100000000000000008310611e4c577a184f03e93ff9f4daa797ed6e38ed64bf6a1f0100000000000000008381611e4257611e41612d7e565b5b0492506040810190505b6d04ee2d6d415b85acef81000000008310611e89576d04ee2d6d415b85acef81000000008381611e7f57611e7e612d7e565b5b0492506020810190505b662386f26fc100008310611eb857662386f26fc100008381611eae57611ead612d7e565b5b0492506010810190505b6305f5e1008310611ee1576305f5e1008381611ed757611ed6612d7e565b5b0492506008810190505b6127108310611f06576127108381611efc57611efb612d7e565b5b0492506004810190505b60648310611f295760648381611f1f57611f1e612d7e565b5b0492506002810190505b600a8310611f38576001810190505b80915050919050565b6000604051905090565b600080fd5b600080fd5b60007fffffffff0000000000000000000000000000000000000000000000000000000082169050919050565b611f8a81611f55565b8114611f9557600080fd5b50565b600081359050611fa781611f81565b92915050565b600060208284031215611fc357611fc2611f4b565b5b6000611fd184828501611f98565b91505092915050565b60008115159050919050565b611fef81611fda565b82525050565b600060208201905061200a6000830184611fe6565b92915050565b600081519050919050565b600082825260208201905092915050565b60005b8381101561204a57808201518184015260208101905061202f565b60008484015250505050565b6000601f19601f8301169050919050565b600061207282612010565b61207c818561201b565b935061208c81856020860161202c565b61209581612056565b840191505092915050565b600060208201905081810360008301526120ba8184612067565b905092915050565b6000819050919050565b6120d5816120c2565b81146120e057600080fd5b50565b6000813590506120f2816120cc565b92915050565b60006020828403121561210e5761210d611f4b565b5b600061211c848285016120e3565b91505092915050565b600073ffffffffffffffffffffffffffffffffffffffff82169050919050565b600061215082612125565b9050919050565b61216081612145565b82525050565b600060208201905061217b6000830184612157565b92915050565b61218a81612145565b811461219557600080fd5b50565b6000813590506121a781612181565b92915050565b600080604083850312156121c4576121c3611f4b565b5b60006121d285828601612198565b92505060206121e3858286016120e3565b9150509250929050565b60008060006060848603121561220657612205611f4b565b5b600061221486828701612198565b935050602061222586828701612198565b9250506040612236868287016120e3565b9150509250925092565b60006020828403121561225657612255611f4b565b5b600061226484828501612198565b91505092915050565b612276816120c2565b82525050565b6000602082019050612291600083018461226d565b92915050565b6122a081611fda565b81146122ab57600080fd5b50565b6000813590506122bd81612297565b92915050565b600080604083850312156122da576122d9611f4b565b5b60006122e885828601612198565b92505060206122f9858286016122ae565b9150509250929050565b600080fd5b600080fd5b7f4e487b7100000000000000000000000000000000000000000000000000000000600052604160045260246000fd5b61234582612056565b810181811067ffffffffffffffff821117156123645761236361230d565b5b80604052505050565b6000612377611f41565b9050612383828261233c565b919050565b600067ffffffffffffffff8211156123a3576123a261230d565b5b6123ac82612056565b9050602081019050919050565b82818337600083830152505050565b60006123db6123d684612388565b61236d565b9050828152602081018484840111156123f7576123f6612308565b5b6124028482856123b9565b509392505050565b600082601f83011261241f5761241e612303565b5b813561242f8482602086016123c8565b91505092915050565b6000806000806080858703121561245257612451611f4b565b5b600061246087828801612198565b945050602061247187828801612198565b9350506040612482878288016120e3565b925050606085013567ffffffffffffffff8111156124a3576124a2611f50565b5b6124af8782880161240a565b91505092959194509250565b600067ffffffffffffffff8211156124d6576124d561230d565b5b6124df82612056565b9050602081019050919050565b60006124ff6124fa846124bb565b61236d565b90508281526020810184848401111561251b5761251a612308565b5b6125268482856123b9565b509392505050565b600082601f83011261254357612542612303565b5b81356125538482602086016124ec565b91505092915050565b6000806040838503121561257357612572611f4b565b5b600061258185828601612198565b925050602083013567ffffffffffffffff8111156125a2576125a1611f50565b5b6125ae8582860161252e565b9150509250929050565b600080604083850312156125cf576125ce611f4b565b5b60006125dd85828601612198565b92505060206125ee85828601612198565b9150509250929050565b7f4e487b7100000000000000000000000000000000000000000000000000000000600052602260045260246000fd5b6000600282049050600182168061263f57607f821691505b602082108103612652576126516125f8565b5b50919050565b600060608201905061266d6000830186612157565b61267a602083018561226d565b6126876040830184612157565b949350505050565b7f43657274696669657220616464726573732063616e6e6f74206265207468652060008201527f7a65726f20616464726573730000000000000000000000000000000000000000602082015250565b60006126eb602c8361201b565b91506126f68261268f565b604082019050919050565b6000602082019050818103600083015261271a816126de565b9050919050565b7f4f6e6c792074686520746f6b656e206f776e65722063616e207265746972652060008201527f6974000000000000000000000000000000000000000000000000000000000000602082015250565b600061277d60228361201b565b915061278882612721565b604082019050919050565b600060208201905081810360008301526127ac81612770565b9050919050565b7f4f6e6c7920746865206365727469666965722063616e206d696e74206e65772060008201527f6372656469747300000000000000000000000000000000000000000000000000602082015250565b600061280f60278361201b565b915061281a826127b3565b604082019050919050565b6000602082019050818103600083015261283e81612802565b9050919050565b7f43616e6e6f74206d696e7420746f20746865207a65726f206164647265737300600082015250565b600061287b601f8361201b565b915061288682612845565b602082019050919050565b600060208201905081810360008301526128aa8161286e565b9050919050565b7f4e487b7100000000000000000000000000000000000000000000000000000000600052601160045260246000fd5b60006128eb826120c2565b91507fffffffffffffffffffffffffffffffffffffffffffffffffffffffffffffffff820361291d5761291c6128b1565b5b600182019050919050565b7f43616e6e6f74207472616e736665722061207265746972656420746f6b656e00600082015250565b600061295e601f8361201b565b915061296982612928565b602082019050919050565b6000602082019050818103600083015261298d81612951565b9050919050565b600081519050919050565b600082825260208201905092915050565b60006129bb82612994565b6129c5818561299f565b93506129d581856020860161202c565b6129de81612056565b840191505092915050565b60006080820190506129fe6000830187612157565b612a0b6020830186612157565b612a18604083018561226d565b8181036060830152612a2a81846129b0565b905095945050505050565b600081519050612a4481611f81565b92915050565b600060208284031215612a6057612a5f611f4b565b5b6000612a6e84828501612a35565b91505092915050565b600081905092915050565b6000612a8d82612010565b612a978185612a77565b9350612aa781856020860161202c565b80840191505092915050565b6000612abf8285612a82565b9150612acb8284612a82565b91508190509392505050565b60008190508160005260206000209050919050565b60006020601f8301049050919050565b600082821b905092915050565b600060088302612b397fffffffffffffffffffffffffffffffffffffffffffffffffffffffffffffffff82612afc565b612b438683612afc565b95508019841693508086168417925050509392505050565b6000819050919050565b6000612b80612b7b612b76846120c2565b612b5b565b6120c2565b9050919050565b6000819050919050565b612b9a83612b65565b612bae612ba682612b87565b848454612b09565b825550505050565b600090565b612bc3612bb6565b612bce818484612b91565b505050565b5b81811015612bf257612be7600082612bbb565b600181019050612bd4565b5050565b601f821115612c3757612c0881612ad7565b612c1184612aec565b81016020851015612c20578190505b612c34612c2c85612aec565b830182612bd3565b50505b505050565b600082821c905092915050565b6000612c5a60001984600802612c3c565b1980831691505092915050565b6000612c738383612c49565b9150826002028217905092915050565b612c8c82612010565b67ffffffffffffffff811115612ca557612ca461230d565b5b612caf8254612627565b612cba828285612bf6565b600060209050601f831160018114612ced5760008415612cdb578287015190505b612ce58582612c67565b865550612d4d565b601f198416612cfb86612ad7565b60005b82811015612d2357848901518255600182019150602085019450602081019050612cfe565b86831015612d405784890151612d3c601f891682612c49565b8355505b6001600288020188555050505b505050505050565b6000604082019050612d6a6000830185612157565b612d77602083018461226d565b9392505050565b7f4e487b7100000000000000000000000000000000000000000000000000000000600052601260045260246000fdfea2646970667358221220b6f24efed9179a0f6a3956486028f0622b388fff8cb8e88ee698806ef101bfb264736f6c63430008180033",
  "linkReferences": {},
  "deployedLinkReferences": {}
}